{
  "contractName": "ElectionCampaign",
  "abi": [
    {
      "constant": true,
      "inputs": [
        {
          "name": "",
          "type": "uint256"
        }
      ],
      "name": "candidates",
      "outputs": [
        {
          "name": "id",
          "type": "uint256"
        },
        {
          "name": "partyID",
          "type": "uint256"
        },
        {
          "name": "votes",
          "type": "uint256"
        },
        {
          "name": "exist",
          "type": "bool"
        }
      ],
      "payable": false,
      "stateMutability": "view",
      "type": "function"
    },
    {
      "constant": true,
      "inputs": [
        {
          "name": "",
          "type": "uint256"
        }
      ],
      "name": "partyCandidates",
      "outputs": [
        {
          "name": "id",
          "type": "uint256"
        },
        {
          "name": "exist",
          "type": "bool"
        }
      ],
      "payable": false,
      "stateMutability": "view",
      "type": "function"
    },
    {
      "constant": true,
      "inputs": [
        {
          "name": "",
          "type": "uint256"
        }
      ],
      "name": "voters",
      "outputs": [
        {
          "name": "id",
          "type": "uint256"
        },
        {
          "name": "toCandidate",
          "type": "uint256"
        },
        {
          "name": "voted",
          "type": "bool"
        },
        {
          "name": "exist",
          "type": "bool"
        }
      ],
      "payable": false,
      "stateMutability": "view",
      "type": "function"
    },
    {
      "inputs": [
        {
          "name": "chairpersonAddress",
          "type": "address"
        },
        {
          "name": "superChairpersonAddress",
          "type": "address"
        }
      ],
      "payable": false,
      "stateMutability": "nonpayable",
      "type": "constructor"
    },
    {
      "constant": true,
      "inputs": [],
      "name": "getSuperChairperson",
      "outputs": [
        {
          "name": "",
          "type": "address"
        }
      ],
      "payable": false,
      "stateMutability": "view",
      "type": "function"
    },
    {
      "constant": true,
      "inputs": [],
      "name": "getChairperson",
      "outputs": [
        {
          "name": "",
          "type": "address"
        }
      ],
      "payable": false,
      "stateMutability": "view",
      "type": "function"
    },
    {
      "constant": false,
      "inputs": [
        {
          "name": "chairpersonNew",
          "type": "address"
        }
      ],
      "name": "setChairperson",
      "outputs": [],
      "payable": false,
      "stateMutability": "nonpayable",
      "type": "function"
    },
    {
      "constant": false,
      "inputs": [
        {
          "name": "id",
          "type": "uint256"
        },
        {
          "name": "partyID",
          "type": "uint256"
        }
      ],
      "name": "addCandidate",
      "outputs": [],
      "payable": false,
      "stateMutability": "nonpayable",
      "type": "function"
    },
    {
      "constant": false,
      "inputs": [
        {
          "name": "id",
          "type": "uint256"
        },
        {
          "name": "newID",
          "type": "uint256"
        }
      ],
      "name": "updateCandidate",
      "outputs": [],
      "payable": false,
      "stateMutability": "nonpayable",
      "type": "function"
    },
    {
      "constant": true,
      "inputs": [],
      "name": "getCandidates",
      "outputs": [
        {
          "name": "",
          "type": "uint256[]"
        }
      ],
      "payable": false,
      "stateMutability": "view",
      "type": "function"
    },
    {
      "constant": false,
      "inputs": [
        {
          "name": "id",
          "type": "uint256"
        }
      ],
      "name": "removeCandidate",
      "outputs": [],
      "payable": false,
      "stateMutability": "nonpayable",
      "type": "function"
    },
    {
      "constant": true,
      "inputs": [
        {
          "name": "id",
          "type": "uint256"
        }
      ],
      "name": "getCandidateParty",
      "outputs": [
        {
          "name": "",
          "type": "uint256"
        }
      ],
      "payable": false,
      "stateMutability": "view",
      "type": "function"
    },
    {
      "constant": false,
      "inputs": [
        {
          "name": "id",
          "type": "uint256"
        },
        {
          "name": "partyID",
          "type": "uint256"
        }
      ],
      "name": "updateCandidateParty",
      "outputs": [],
      "payable": false,
      "stateMutability": "nonpayable",
      "type": "function"
    },
    {
      "constant": true,
      "inputs": [],
      "name": "getNumOfCandidates",
      "outputs": [
        {
          "name": "",
          "type": "uint256"
        }
      ],
      "payable": false,
      "stateMutability": "view",
      "type": "function"
    },
    {
      "constant": true,
      "inputs": [
        {
          "name": "id",
          "type": "uint256"
        }
      ],
      "name": "getCandidateVotes",
      "outputs": [
        {
          "name": "",
          "type": "uint256"
        }
      ],
      "payable": false,
      "stateMutability": "view",
      "type": "function"
    },
    {
      "constant": true,
      "inputs": [
        {
          "name": "partyID",
          "type": "uint256"
        }
      ],
      "name": "getPartyVotes",
      "outputs": [
        {
          "name": "",
          "type": "uint256"
        }
      ],
      "payable": false,
      "stateMutability": "view",
      "type": "function"
    },
    {
      "constant": true,
      "inputs": [
        {
          "name": "partyID",
          "type": "uint256"
        }
      ],
      "name": "getPartyCandidate",
      "outputs": [
        {
          "name": "",
          "type": "uint256"
        }
      ],
      "payable": false,
      "stateMutability": "view",
      "type": "function"
    },
    {
      "constant": true,
      "inputs": [],
      "name": "getNumOfVoters",
      "outputs": [
        {
          "name": "",
          "type": "uint256"
        }
      ],
      "payable": false,
      "stateMutability": "view",
      "type": "function"
    },
    {
      "constant": true,
      "inputs": [
        {
          "name": "id",
          "type": "uint256"
        }
      ],
      "name": "getVote",
      "outputs": [
        {
          "name": "",
          "type": "uint256"
        }
      ],
      "payable": false,
      "stateMutability": "view",
      "type": "function"
    },
    {
      "constant": false,
      "inputs": [
        {
          "name": "id",
          "type": "uint256"
        }
      ],
      "name": "registerVoter",
      "outputs": [],
      "payable": false,
      "stateMutability": "nonpayable",
      "type": "function"
    },
    {
      "constant": false,
      "inputs": [
        {
          "name": "id",
          "type": "uint256"
        }
      ],
      "name": "unRegisterVoter",
      "outputs": [],
      "payable": false,
      "stateMutability": "nonpayable",
      "type": "function"
    },
    {
      "constant": false,
      "inputs": [
        {
          "name": "id",
          "type": "uint256"
        },
        {
          "name": "candidateID",
          "type": "uint256"
        }
      ],
      "name": "vote",
      "outputs": [],
      "payable": false,
      "stateMutability": "nonpayable",
      "type": "function"
    }
  ],
  "bytecode": "0x608060405234801561001057600080fd5b506040516040806124b18339810180604052604081101561003057600080fd5b810190808051906020019092919080519060200190929190505050816000806101000a81548173ffffffffffffffffffffffffffffffffffffffff021916908373ffffffffffffffffffffffffffffffffffffffff16021790555080600160006101000a81548173ffffffffffffffffffffffffffffffffffffffff021916908373ffffffffffffffffffffffffffffffffffffffff16021790555050506123d4806100dd6000396000f3fe608060405260043610610117576000357c01000000000000000000000000000000000000000000000000000000009004806306a49fce1461011c57806309e9d7e2146101885780632acf6304146101c35780632f2cd606146102125780633477ee2e1461024d578063456645a7146102b55780635a55c1f01461030457806365fc783c146103535780637d80c38e1461037e578063866163c0146103d557806393f3bc6114610424578063a13f2f8d14610469578063b384abef146104a4578063c4868f88146104e9578063c5372a481461053a578063c678ab2714610589578063da58c7d9146105e3578063dd7ada331461064f578063dff0a88014610694578063e8685ba1146106d9578063ee9b72eb14610704575b600080fd5b34801561012857600080fd5b5061013161075b565b6040518080602001828103825283818151815260200191508051906020019060200280838360005b83811015610174578082015181840152602081019050610159565b505050509050019250505060405180910390f35b34801561019457600080fd5b506101c1600480360360208110156101ab57600080fd5b81019080803590602001909291905050506108cf565b005b3480156101cf57600080fd5b506101fc600480360360208110156101e657600080fd5b8101908080359060200190929190505050610baa565b6040518082815260200191505060405180910390f35b34801561021e57600080fd5b5061024b6004803603602081101561023557600080fd5b8101908080359060200190929190505050610d77565b005b34801561025957600080fd5b506102866004803603602081101561027057600080fd5b8101908080359060200190929190505050610e43565b604051808581526020018481526020018381526020018215151515815260200194505050505060405180910390f35b3480156102c157600080fd5b506102ee600480360360208110156102d857600080fd5b8101908080359060200190929190505050610e80565b6040518082815260200191505060405180910390f35b34801561031057600080fd5b5061033d6004803603602081101561032757600080fd5b8101908080359060200190929190505050611056565b6040518082815260200191505060405180910390f35b34801561035f57600080fd5b50610368611110565b6040518082815260200191505060405180910390f35b34801561038a57600080fd5b50610393611236565b604051808273ffffffffffffffffffffffffffffffffffffffff1673ffffffffffffffffffffffffffffffffffffffff16815260200191505060405180910390f35b3480156103e157600080fd5b5061040e600480360360208110156103f857600080fd5b810190808035906020019092919050505061125f565b6040518082815260200191505060405180910390f35b34801561043057600080fd5b506104676004803603604081101561044757600080fd5b810190808035906020019092919080359060200190929190505050611435565b005b34801561047557600080fd5b506104a26004803603602081101561048c57600080fd5b8101908080359060200190929190505050611698565b005b3480156104b057600080fd5b506104e7600480360360408110156104c757600080fd5b8101908080359060200190929190803590602001909291905050506117c8565b005b3480156104f557600080fd5b506105386004803603602081101561050c57600080fd5b81019080803573ffffffffffffffffffffffffffffffffffffffff169060200190929190505050611a9d565b005b34801561054657600080fd5b506105736004803603602081101561055d57600080fd5b8101908080359060200190929190505050611bfc565b6040518082815260200191505060405180910390f35b34801561059557600080fd5b506105c2600480360360208110156105ac57600080fd5b8101908080359060200190929190505050611d6b565b60405180838152602001821515151581526020019250505060405180910390f35b3480156105ef57600080fd5b5061061c6004803603602081101561060657600080fd5b8101908080359060200190929190505050611d9c565b60405180858152602001848152602001831515151581526020018215151515815260200194505050505060405180910390f35b34801561065b57600080fd5b506106926004803603604081101561067257600080fd5b810190808035906020019092919080359060200190929190505050611de6565b005b3480156106a057600080fd5b506106d7600480360360408110156106b757600080fd5b810190808035906020019092919080359060200190929190505050611fbb565b005b3480156106e557600080fd5b506106ee612204565b6040518082815260200191505060405180910390f35b34801561071057600080fd5b5061071961232d565b604051808273ffffffffffffffffffffffffffffffffffffffff1673ffffffffffffffffffffffffffffffffffffffff16815260200191505060405180910390f35b60606000809054906101000a900473ffffffffffffffffffffffffffffffffffffffff1673ffffffffffffffffffffffffffffffffffffffff163373ffffffffffffffffffffffffffffffffffffffff1614806108055750600160009054906101000a900473ffffffffffffffffffffffffffffffffffffffff1673ffffffffffffffffffffffffffffffffffffffff163373ffffffffffffffffffffffffffffffffffffffff16145b1515610879576040517f08c379a00000000000000000000000000000000000000000000000000000000081526004018080602001828103825260168152602001807f53656e646572206e6f7420617574686f72697a65642e0000000000000000000081525060200191505060405180910390fd5b60038054806020026020016040519081016040528092919081815260200182805480156108c557602002820191906000526020600020905b8154815260200190600101908083116108b1575b5050505050905090565b6000809054906101000a900473ffffffffffffffffffffffffffffffffffffffff1673ffffffffffffffffffffffffffffffffffffffff163373ffffffffffffffffffffffffffffffffffffffff1614806109775750600160009054906101000a900473ffffffffffffffffffffffffffffffffffffffff1673ffffffffffffffffffffffffffffffffffffffff163373ffffffffffffffffffffffffffffffffffffffff16145b15156109eb576040517f08c379a00000000000000000000000000000000000000000000000000000000081526004018080602001828103825260168152602001807f53656e646572206e6f7420617574686f72697a65642e0000000000000000000081525060200191505060405180910390fd5b806004600082815260200190815260200160002060030160009054906101000a900460ff161515610a84576040517f08c379a00000000000000000000000000000000000000000000000000000000081526004018080602001828103825260198152602001807f43616e64696461746520646f6573206e6f742065786973742e0000000000000081525060200191505060405180910390fd5b60008090505b600380549050811015610ba55782600382815481101515610aa757fe5b90600052602060002001541415610b565760008190505b600160038054905003811015610b1557600360018201815481101515610ae057fe5b9060005260206000200154600382815481101515610afa57fe5b90600052602060002001819055508080600101915050610abe565b506003600160038054905003815481101515610b2d57fe5b90600052602060002001600090556003805480919060019003610b509190612357565b50610ba5565b60046000848152602001908152602001600020600080820160009055600182016000905560028201600090556003820160006101000a81549060ff021916905550508080600101915050610a8a565b505050565b60008060009054906101000a900473ffffffffffffffffffffffffffffffffffffffff1673ffffffffffffffffffffffffffffffffffffffff163373ffffffffffffffffffffffffffffffffffffffff161480610c545750600160009054906101000a900473ffffffffffffffffffffffffffffffffffffffff1673ffffffffffffffffffffffffffffffffffffffff163373ffffffffffffffffffffffffffffffffffffffff16145b1515610cc8576040517f08c379a00000000000000000000000000000000000000000000000000000000081526004018080602001828103825260168152602001807f53656e646572206e6f7420617574686f72697a65642e0000000000000000000081525060200191505060405180910390fd5b6006600083815260200190815260200160002060010160009054906101000a900460ff1615610d6d57600460006006600085815260200190815260200160002060000154815260200190815260200160002060030160009054906101000a900460ff1615610d64576004600060066000858152602001908152602001600020600001548152602001908152602001600020600201549050610d72565b60009050610d72565b600090505b919050565b806005600082815260200190815260200160002060020160019054906101000a900460ff161515610e10576040517f08c379a000000000000000000000000000000000000000000000000000000000815260040180806020018281038252600c8152602001807f566f74657220657869737473000000000000000000000000000000000000000081525060200191505060405180910390fd5b60006005600084815260200190815260200160002060020160016101000a81548160ff0219169083151502179055505050565b60046020528060005260406000206000915090508060000154908060010154908060020154908060030160009054906101000a900460ff16905084565b60008060009054906101000a900473ffffffffffffffffffffffffffffffffffffffff1673ffffffffffffffffffffffffffffffffffffffff163373ffffffffffffffffffffffffffffffffffffffff161480610f2a5750600160009054906101000a900473ffffffffffffffffffffffffffffffffffffffff1673ffffffffffffffffffffffffffffffffffffffff163373ffffffffffffffffffffffffffffffffffffffff16145b1515610f9e576040517f08c379a00000000000000000000000000000000000000000000000000000000081526004018080602001828103825260168152602001807f53656e646572206e6f7420617574686f72697a65642e0000000000000000000081525060200191505060405180910390fd5b816004600082815260200190815260200160002060030160009054906101000a900460ff161515611037576040517f08c379a00000000000000000000000000000000000000000000000000000000081526004018080602001828103825260198152602001807f43616e64696461746520646f6573206e6f742065786973742e0000000000000081525060200191505060405180910390fd5b6004600084815260200190815260200160002060010154915050919050565b6000816005600082815260200190815260200160002060020160009054906101000a900460ff1615156110f1576040517f08c379a00000000000000000000000000000000000000000000000000000000081526004018080602001828103825260148152602001807f566f74657220646f6573206e6f7420766f74656400000000000000000000000081525060200191505060405180910390fd5b6005600084815260200190815260200160002060010154915050919050565b60008060009054906101000a900473ffffffffffffffffffffffffffffffffffffffff1673ffffffffffffffffffffffffffffffffffffffff163373ffffffffffffffffffffffffffffffffffffffff1614806111ba5750600160009054906101000a900473ffffffffffffffffffffffffffffffffffffffff1673ffffffffffffffffffffffffffffffffffffffff163373ffffffffffffffffffffffffffffffffffffffff16145b151561122e576040517f08c379a00000000000000000000000000000000000000000000000000000000081526004018080602001828103825260168152602001807f53656e646572206e6f7420617574686f72697a65642e0000000000000000000081525060200191505060405180910390fd5b600254905090565b60008060009054906101000a900473ffffffffffffffffffffffffffffffffffffffff16905090565b60008060009054906101000a900473ffffffffffffffffffffffffffffffffffffffff1673ffffffffffffffffffffffffffffffffffffffff163373ffffffffffffffffffffffffffffffffffffffff1614806113095750600160009054906101000a900473ffffffffffffffffffffffffffffffffffffffff1673ffffffffffffffffffffffffffffffffffffffff163373ffffffffffffffffffffffffffffffffffffffff16145b151561137d576040517f08c379a00000000000000000000000000000000000000000000000000000000081526004018080602001828103825260168152602001807f53656e646572206e6f7420617574686f72697a65642e0000000000000000000081525060200191505060405180910390fd5b816004600082815260200190815260200160002060030160009054906101000a900460ff161515611416576040517f08c379a00000000000000000000000000000000000000000000000000000000081526004018080602001828103825260198152602001807f43616e64696461746520646f6573206e6f742065786973742e0000000000000081525060200191505060405180910390fd5b6004600084815260200190815260200160002060020154915050919050565b6000809054906101000a900473ffffffffffffffffffffffffffffffffffffffff1673ffffffffffffffffffffffffffffffffffffffff163373ffffffffffffffffffffffffffffffffffffffff1614806114dd5750600160009054906101000a900473ffffffffffffffffffffffffffffffffffffffff1673ffffffffffffffffffffffffffffffffffffffff163373ffffffffffffffffffffffffffffffffffffffff16145b1515611551576040517f08c379a00000000000000000000000000000000000000000000000000000000081526004018080602001828103825260168152602001807f53656e646572206e6f7420617574686f72697a65642e0000000000000000000081525060200191505060405180910390fd5b816004600082815260200190815260200160002060030160009054906101000a900460ff1615156115ea576040517f08c379a00000000000000000000000000000000000000000000000000000000081526004018080602001828103825260198152602001807f43616e64696461746520646f6573206e6f742065786973742e0000000000000081525060200191505060405180910390fd5b60046000848152602001908152602001600020600460008481526020019081526020016000206000820154816000015560018201548160010155600282015481600201556003820160009054906101000a900460ff168160030160006101000a81548160ff0219169083151502179055509050506003829080600181540180825580915050906001820390600052602060002001600090919290919091505550611693836108cf565b505050565b806005600082815260200190815260200160002060020160019054906101000a900460ff161515611731576040517f08c379a000000000000000000000000000000000000000000000000000000000815260040180806020018281038252600c8152602001807f566f74657220657869737473000000000000000000000000000000000000000081525060200191505060405180910390fd5b608060405190810160405280838152602001600081526020016000151581526020016001151581525060056000848152602001908152602001600020600082015181600001556020820151816001015560408201518160020160006101000a81548160ff02191690831515021790555060608201518160020160016101000a81548160ff0219169083151502179055509050505050565b6000809054906101000a900473ffffffffffffffffffffffffffffffffffffffff1673ffffffffffffffffffffffffffffffffffffffff163373ffffffffffffffffffffffffffffffffffffffff1614806118705750600160009054906101000a900473ffffffffffffffffffffffffffffffffffffffff1673ffffffffffffffffffffffffffffffffffffffff163373ffffffffffffffffffffffffffffffffffffffff16145b15156118e4576040517f08c379a00000000000000000000000000000000000000000000000000000000081526004018080602001828103825260168152602001807f53656e646572206e6f7420617574686f72697a65642e0000000000000000000081525060200191505060405180910390fd5b806004600082815260200190815260200160002060030160009054906101000a900460ff16151561197d576040517f08c379a00000000000000000000000000000000000000000000000000000000081526004018080602001828103825260198152602001807f43616e64696461746520646f6573206e6f742065786973742e0000000000000081525060200191505060405180910390fd5b6005600084815260200190815260200160002060020160009054906101000a900460ff16151515611a16576040517f08c379a00000000000000000000000000000000000000000000000000000000081526004018080602001828103825260138152602001807f566f74657220616c726561647920766f7465640000000000000000000000000081525060200191505060405180910390fd5b60016005600085815260200190815260200160002060020160006101000a81548160ff0219169083151502179055508160056000858152602001908152602001600020600101819055506004600083815260200190815260200160002060020160008154809291906001019190505550600260008154809291906001019190505550505050565b6000809054906101000a900473ffffffffffffffffffffffffffffffffffffffff1673ffffffffffffffffffffffffffffffffffffffff163373ffffffffffffffffffffffffffffffffffffffff161480611b455750600160009054906101000a900473ffffffffffffffffffffffffffffffffffffffff1673ffffffffffffffffffffffffffffffffffffffff163373ffffffffffffffffffffffffffffffffffffffff16145b1515611bb9576040517f08c379a00000000000000000000000000000000000000000000000000000000081526004018080602001828103825260168152602001807f53656e646572206e6f7420617574686f72697a65642e0000000000000000000081525060200191505060405180910390fd5b806000806101000a81548173ffffffffffffffffffffffffffffffffffffffff021916908373ffffffffffffffffffffffffffffffffffffffff16021790555050565b60008060009054906101000a900473ffffffffffffffffffffffffffffffffffffffff1673ffffffffffffffffffffffffffffffffffffffff163373ffffffffffffffffffffffffffffffffffffffff161480611ca65750600160009054906101000a900473ffffffffffffffffffffffffffffffffffffffff1673ffffffffffffffffffffffffffffffffffffffff163373ffffffffffffffffffffffffffffffffffffffff16145b1515611d1a576040517f08c379a00000000000000000000000000000000000000000000000000000000081526004018080602001828103825260168152602001807f53656e646572206e6f7420617574686f72697a65642e0000000000000000000081525060200191505060405180910390fd5b6006600083815260200190815260200160002060010160009054906101000a900460ff1615611d615760066000838152602001908152602001600020600001549050611d66565b600090505b919050565b60066020528060005260406000206000915090508060000154908060010160009054906101000a900460ff16905082565b60056020528060005260406000206000915090508060000154908060010154908060020160009054906101000a900460ff16908060020160019054906101000a900460ff16905084565b6000809054906101000a900473ffffffffffffffffffffffffffffffffffffffff1673ffffffffffffffffffffffffffffffffffffffff163373ffffffffffffffffffffffffffffffffffffffff161480611e8e5750600160009054906101000a900473ffffffffffffffffffffffffffffffffffffffff1673ffffffffffffffffffffffffffffffffffffffff163373ffffffffffffffffffffffffffffffffffffffff16145b1515611f02576040517f08c379a00000000000000000000000000000000000000000000000000000000081526004018080602001828103825260168152602001807f53656e646572206e6f7420617574686f72697a65642e0000000000000000000081525060200191505060405180910390fd5b816004600082815260200190815260200160002060030160009054906101000a900460ff161515611f9b576040517f08c379a00000000000000000000000000000000000000000000000000000000081526004018080602001828103825260198152602001807f43616e64696461746520646f6573206e6f742065786973742e0000000000000081525060200191505060405180910390fd5b816004600085815260200190815260200160002060010181905550505050565b6000809054906101000a900473ffffffffffffffffffffffffffffffffffffffff1673ffffffffffffffffffffffffffffffffffffffff163373ffffffffffffffffffffffffffffffffffffffff1614806120635750600160009054906101000a900473ffffffffffffffffffffffffffffffffffffffff1673ffffffffffffffffffffffffffffffffffffffff163373ffffffffffffffffffffffffffffffffffffffff16145b15156120d7576040517f08c379a00000000000000000000000000000000000000000000000000000000081526004018080602001828103825260168152602001807f53656e646572206e6f7420617574686f72697a65642e0000000000000000000081525060200191505060405180910390fd5b6004600083815260200190815260200160002060030160009054906101000a900460ff1615156122005760806040519081016040528083815260200182815260200160008152602001600115158152506004600084815260200190815260200160002060008201518160000155602082015181600101556040820151816002015560608201518160030160006101000a81548160ff0219169083151502179055509050506003829080600181540180825580915050906001820390600052602060002001600090919290919091505550604080519081016040528083815260200160011515815250600660008381526020019081526020016000206000820151816000015560208201518160010160006101000a81548160ff0219169083151502179055509050505b5050565b60008060009054906101000a900473ffffffffffffffffffffffffffffffffffffffff1673ffffffffffffffffffffffffffffffffffffffff163373ffffffffffffffffffffffffffffffffffffffff1614806122ae5750600160009054906101000a900473ffffffffffffffffffffffffffffffffffffffff1673ffffffffffffffffffffffffffffffffffffffff163373ffffffffffffffffffffffffffffffffffffffff16145b1515612322576040517f08c379a00000000000000000000000000000000000000000000000000000000081526004018080602001828103825260168152602001807f53656e646572206e6f7420617574686f72697a65642e0000000000000000000081525060200191505060405180910390fd5b600380549050905090565b6000600160009054906101000a900473ffffffffffffffffffffffffffffffffffffffff16905090565b81548183558181111561237e5781836000526020600020918201910161237d9190612383565b5b505050565b6123a591905b808211156123a1576000816000905550600101612389565b5090565b9056fea165627a7a72305820f1011ff7988fc94dcf74eefda6846995cd2e9ab130a8feac50beaf3a5adddce20029",
  "source": "pragma solidity >=0.4.22 <0.6.0;\n// Solidity Version 0.4.22 <0.6.0\n\n//   0xbc848c44a72D878aA935CccFe3e307c4e2DB0146 head\n//   0x3184b6541c82fAa56B9d2360E2953d89f1Db8d82 Chairperson\n// Election contract\ncontract Elections{\n\n    ///////////////////////////////////////////////////////////////////////////////////////\n\n    // Party Struct\n    struct Party{\n        uint id;\n        bool exists;\n    }\n\n    ////////////////////////////////////////////////////////////////////////////////////////\n\n    // Global variables\n    address superChairPerson;\n    address[] chairpersons;\n\n    address[] campaigns;\n\n    uint[] partyIDs;\n    mapping(uint => Party) parties;\n\n    /////////////////////////////////////////////////////////////////////////////////////////\n\n    // Modifieres\n    modifier restricted(){\n        require(msg.sender == superChairPerson,\"Sender not authorized.\");\n        _;\n    }\n\n    modifier checkParty(uint id){\n        require(parties[id].exists,\"Party does not exists.\");\n        _;\n    }\n\n    ////////////////////////////////////////////////////////////////////////////////////////\n\n    // Constructor\n    constructor(address superChairpersonAddress) public {\n        superChairPerson = superChairpersonAddress;\n    }\n\n    //////////////////////////////////////////////////////////////////////////////////////////////\n\n    // SuperChairperson Queries (geter and setter)\n    function getSuperChairperson() public view returns(address) {\n        return superChairPerson;\n    }\n\n    function setSuperChairperson(address superChairPersonNew)public restricted{\n        superChairPerson = superChairPersonNew;\n    }\n\n\n    //////////////////////////////////////////////////////////////////////////////////////////////\n\n    // Chairperson Queries (geter and setter)\n    function getChairpersons() public view restricted returns(address[] memory) {\n        return chairpersons;\n    }\n\n    function updateChairPerson(address old,address newAdd)public restricted{\n        chairpersons.push(newAdd);\n        removeChairperson(old);\n    }\n\n    function removeChairperson(address chairpersonAddress)public restricted{\n        for (uint j =0;j<chairpersons.length;j++){\n            if(chairpersons[j] == chairpersonAddress){\n                for (uint i = j; i<chairpersons.length-1; i++){\n                    chairpersons[i] = chairpersons[i+1];\n                }\n                delete chairpersons[chairpersons.length-1];\n                chairpersons.length--;\n                break;\n            }\n        }\n    }\n\n    ////////////////////////////////////////////////////////////////////////////////////////\n\n    // Party Queries\n    function addParty(uint id) public restricted{\n        parties[id] = Party(id,true);\n        partyIDs.push(id);\n    }\n\n    function updateParty(uint id, uint newID)public restricted checkParty(id){\n        parties[newID] = parties[id];\n        removeParty(id);\n    }\n\n    function getParties()public view restricted returns(uint[] memory){\n        return (partyIDs);\n    }\n\n    function removeParty(uint id) public restricted checkParty(id){\n        for (uint j =0;j<partyIDs.length;j++){\n            if(partyIDs[j] == id){\n                for (uint i = j; i<partyIDs.length-1; i++){\n                    partyIDs[i] = partyIDs[i+1];\n                }\n                delete partyIDs[partyIDs.length-1];\n                partyIDs.length--;\n                break;\n            }\n        }\n        delete parties[id];\n    }\n\n    function getNumOfParties() public view restricted returns(uint) {\n        return partyIDs.length;\n    }\n\n    function getPartyVotesByCampaign(uint id,address campaignAddr)public view restricted checkParty(id)returns(uint){\n        ElectionCampaign campaign = ElectionCampaign(campaignAddr);\n        return (campaign.getPartyVotes(id));\n    }\n\n    function getPartyVotes(uint id)public restricted view checkParty(id) returns(uint){\n        uint votes;\n        for(uint i = 0; i<campaigns.length; i++){\n            votes += getPartyVotesByCampaign(id, campaigns[i]);\n        }\n        return votes;\n    }\n\n    function getPartyCandidatesByCampaign(uint id,address campaignAddr)public view restricted checkParty(id) returns(uint){\n        ElectionCampaign campaign = ElectionCampaign(campaignAddr);\n        return (campaign.getPartyCandidate(id));\n    }\n\n    function getPartyCandidatesCount(uint id)public view restricted checkParty(id) returns(uint){\n        uint count;\n        for(uint i = 0; i<campaigns.length; i++){\n            if(ElectionCampaign(campaigns[i]).getPartyCandidate(id) != 0)\n                count ++;\n        }\n        return (count);\n    }\n\n    function getPartyCandidates(uint id)public view restricted checkParty(id) returns(uint[] memory){\n        uint size = getPartyCandidatesCount(id);\n        uint[] memory ar = new uint[](size);\n        uint count = 0;\n        for(uint i = 0;i<campaigns.length;i++){\n            if(ElectionCampaign(campaigns[i]).getPartyCandidate(id) != 0){\n                ar[count] = ElectionCampaign(campaigns[i]).getPartyCandidate(id);\n                count++;\n            }\n        }\n        return ar;\n    }\n\n    ////////////////////////////////////////////////////////////////////////////////////////\n\n    // Campaign Queries\n    function crateElectionCampaign(address chairperson) public restricted returns(address){\n        chairpersons.push(chairperson);\n        ElectionCampaign campaign = new ElectionCampaign(chairperson,superChairPerson);\n        campaigns.push(address(campaign));\n        return (address(campaign));\n    }\n\n    function getElectionCampaigns() public restricted view returns(address[] memory){\n        return (campaigns);\n    }\n\n    function removeElectionCampaigns(address adr) public restricted{\n        for (uint j =0;j<campaigns.length;j++){\n            if(campaigns[j] == adr){\n                for (uint i = j; i<campaigns.length-1; i++){\n                    campaigns[i] = campaigns[i+1];\n                }\n                delete campaigns[campaigns.length-1];\n                campaigns.length--;\n                break;\n            }\n        }\n    }\n\n}\n\n////////////////////////////////////////////////////////////////////////////////////////\n\n// Election Campaign contract\ncontract ElectionCampaign{\n\n    ///////////////////////////////////////////////////////////////////////////////////////\n\n    // Candidate Stuct\n    struct Candidate{\n        uint id;\n        uint partyID;\n        uint votes;\n        bool exist;\n    }\n\n    ////////////////////////////////////////////////////////////////////////////////////////\n\n    //Voter Stuct\n    struct Voter {\n        uint id;\n        uint toCandidate;\n        bool voted;\n        bool exist;\n    }\n\n    ////////////////////////////////////////////////////////////////////////////////////////\n\n    // Hashmap Stuct\n    struct PartyMapping {\n        uint id;\n        bool exist;\n    }\n\n    ///////////////////////////////////////////////////////////////////////////////////////////\n\n    // Global variables\n\n    address chairperson;\n    address superChairperson;\n\n    uint votersCount;\n\n    uint[] candidateIDs;\n\n    mapping (uint => Candidate)public candidates;\n    mapping (uint => Voter)public voters;\n    mapping (uint => PartyMapping)public partyCandidates;\n\n    ///////////////////////////////////////////////////////////////////////////////////////////\n\n    // Modifieres\n    modifier restricted(){\n        require(msg.sender == chairperson || msg.sender == superChairperson,\"Sender not authorized.\");\n        _;\n    }\n\n    modifier checkCandidate(uint candidateID){\n        require(candidates[candidateID].exist,\"Candidate does not exist.\");\n        _;\n    }\n\n    modifier checkVoted(uint id){\n        require(voters[id].voted,\"Voter does not voted\");\n        _;\n    }\n\n    modifier checkVoterExist(uint id){\n        require(voters[id].exist,\"Voter exists\");\n        _;\n    }\n\n    modifier checkNotVoterExist(uint id){\n        require(voters[id].exist,\"Voter exists\");\n        _;\n    }\n\n    ////////////////////////////////////////////////////////////////////////////////////////////\n\n    // Constructor\n    constructor(address chairpersonAddress, address superChairpersonAddress) public {\n        chairperson = chairpersonAddress;\n        superChairperson = superChairpersonAddress;\n    }\n\n    //////////////////////////////////////////////////////////////////////////////////////////////\n\n    // SuperChairperson Queries\n    function getSuperChairperson() public view returns(address){\n        return superChairperson;\n    }\n\n    //////////////////////////////////////////////////////////////////////////////////////////////\n\n    // Chairperson Queries\n    function getChairperson() public view returns(address) {\n        return chairperson;\n    }\n\n    function setChairperson(address chairpersonNew)public restricted{\n        chairperson = chairpersonNew;\n    }\n\n    /////////////////////////////////////////////////////////////////////////////////////////////\n\n    // Candidate Queries\n    function addCandidate(uint id, uint partyID) public restricted{\n        if(!candidates[id].exist){\n            candidates[id] = Candidate(id,partyID,0,true);\n            candidateIDs.push(id);\n            partyCandidates[partyID] = PartyMapping(id,true);\n        }\n    }\n\n    function updateCandidate(uint id, uint newID) public restricted checkCandidate(id){\n        candidates[newID] = candidates[id];\n        candidateIDs.push(newID);\n        removeCandidate(id);\n    }\n\n    function getCandidates() public view restricted returns(uint[] memory){\n        return (candidateIDs);\n    }\n\n    function removeCandidate(uint id) public restricted checkCandidate(id){\n        for (uint j =0;j<candidateIDs.length;j++){\n            if(candidateIDs[j] == id){\n                for (uint i = j; i<candidateIDs.length-1; i++){\n                    candidateIDs[i] = candidateIDs[i+1];\n                }\n                delete candidateIDs[candidateIDs.length-1];\n                candidateIDs.length--;\n                break;\n            }\n            delete candidates[id];\n        }\n    }\n\n    function getCandidateParty(uint id)public view restricted checkCandidate(id) returns(uint){\n        return candidates[id].partyID;\n    }\n\n    function updateCandidateParty(uint id,uint partyID)public restricted checkCandidate(id){\n        candidates[id].partyID = partyID;\n    }\n\n    function getNumOfCandidates() public view restricted returns(uint) {\n        return candidateIDs.length;\n    }\n\n    function getCandidateVotes(uint id) public view restricted checkCandidate(id) returns(uint){\n        return (candidates[id].votes);\n    }\n\n    ///////////////////////////////////////////////////////////////////////////////////////////////\n\n    // Party Queries\n    function getPartyVotes(uint partyID)public view restricted returns(uint){\n        if(partyCandidates[partyID].exist){\n            if(candidates[partyCandidates[partyID].id].exist){\n                return (candidates[partyCandidates[partyID].id].votes);\n            }else return 0;\n        }else return 0;\n    }\n\n    function getPartyCandidate(uint partyID)public view restricted returns(uint){\n        if(partyCandidates[partyID].exist){\n            return partyCandidates[partyID].id;\n        }else{\n            return 0;\n        }\n    }\n\n    ///////////////////////////////////////////////////////////////////////////////////////////////\n\n    // Voter Queries\n    function getNumOfVoters() public view restricted returns(uint) {\n        return votersCount;\n    }\n\n    function getVote(uint id)public view checkVoted(id) returns(uint){\n        return (voters[id].toCandidate);\n    }\n\n    function registerVoter(uint id) public checkNotVoterExist(id){\n        voters[id] = Voter(id,0,false,true);\n    }\n\n    function unRegisterVoter(uint id) public checkNotVoterExist(id){\n        voters[id].exist = false;\n    }\n\n    ////////////////////////////////////////////////////////////////////////////////////////////////\n    // Actual Vote Function\n    function vote(uint id, uint candidateID) public restricted checkCandidate(candidateID){\n        require(!voters[id].voted,\"Voter already voted\");\n        voters[id].voted = true;\n        voters[id].toCandidate = candidateID;\n        candidates[candidateID].votes++;\n        votersCount++;\n    }\n\n}",
  "sourcePath": "/Users/shri99/WebstormProjects/Smart-Elections_Server/etherum/contracts/Elections.sol",
  "compiler": {
    "name": "solc",
    "version": "0.5.1+commit.c8a2cb62.Emscripten.clang"
  },
  "schemaVersion": "3.0.1",
  "updatedAt": "2019-01-19T19:58:24.273Z",
  "devdoc": {
    "methods": {}
  },
  "userdoc": {
    "methods": {
      "addCandidate(uint256,uint256)": {
        "notice": "//////////////////////////////////////////////////////////////////////////////////////////"
      },
      "constructor": "/////////////////////////////////////////////////////////////////////////////////////////",
      "getChairperson()": {
        "notice": "///////////////////////////////////////////////////////////////////////////////////////////"
      },
      "getNumOfVoters()": {
        "notice": "////////////////////////////////////////////////////////////////////////////////////////////"
      },
      "getPartyVotes(uint256)": {
        "notice": "////////////////////////////////////////////////////////////////////////////////////////////"
      },
      "getSuperChairperson()": {
        "notice": "///////////////////////////////////////////////////////////////////////////////////////////"
      },
      "vote(uint256,uint256)": {
        "notice": "/////////////////////////////////////////////////////////////////////////////////////////////"
      }
    },
    "notice": "/////////////////////////////////////////////////////////////////////////////////////"
  }
}